{
  "contractName": "Library",
  "abi": [
    {
      "inputs": [],
      "payable": false,
      "stateMutability": "nonpayable",
      "type": "constructor"
    },
    {
      "anonymous": false,
      "inputs": [
        {
          "indexed": false,
          "internalType": "uint256",
          "name": "book_Id",
          "type": "uint256"
        },
        {
          "indexed": false,
          "internalType": "string",
          "name": "book_Hash",
          "type": "string"
        },
        {
          "indexed": false,
          "internalType": "uint256",
          "name": "book_Size",
          "type": "uint256"
        },
        {
          "indexed": false,
          "internalType": "string",
          "name": "book_Name",
          "type": "string"
        },
        {
          "indexed": false,
          "internalType": "string",
          "name": "book_Description",
          "type": "string"
        },
        {
          "indexed": false,
          "internalType": "string",
          "name": "author",
          "type": "string"
        },
        {
          "indexed": false,
          "internalType": "uint256",
          "name": "isbn",
          "type": "uint256"
        },
        {
          "indexed": false,
          "internalType": "uint256",
          "name": "uploadTime",
          "type": "uint256"
        },
        {
          "indexed": false,
          "internalType": "address",
          "name": "uploader",
          "type": "address"
        }
      ],
      "name": "BookUploaded",
      "type": "event"
    },
    {
      "anonymous": false,
      "inputs": [
        {
          "indexed": false,
          "internalType": "uint256",
          "name": "note_Id",
          "type": "uint256"
        },
        {
          "indexed": false,
          "internalType": "string",
          "name": "note_Hash",
          "type": "string"
        },
        {
          "indexed": false,
          "internalType": "uint256",
          "name": "note_Size",
          "type": "uint256"
        },
        {
          "indexed": false,
          "internalType": "string",
          "name": "stream",
          "type": "string"
        },
        {
          "indexed": false,
          "internalType": "string",
          "name": "subjectcode",
          "type": "string"
        },
        {
          "indexed": false,
          "internalType": "string",
          "name": "teacher",
          "type": "string"
        },
        {
          "indexed": false,
          "internalType": "string",
          "name": "date",
          "type": "string"
        },
        {
          "indexed": false,
          "internalType": "uint256",
          "name": "uploadTime",
          "type": "uint256"
        },
        {
          "indexed": false,
          "internalType": "address",
          "name": "uploader",
          "type": "address"
        }
      ],
      "name": "NoteUploaded",
      "type": "event"
    },
    {
      "constant": true,
      "inputs": [],
      "name": "BookCount",
      "outputs": [
        {
          "internalType": "uint256",
          "name": "",
          "type": "uint256"
        }
      ],
      "payable": false,
      "stateMutability": "view",
      "type": "function"
    },
    {
      "constant": true,
      "inputs": [],
      "name": "NoteCount",
      "outputs": [
        {
          "internalType": "uint256",
          "name": "",
          "type": "uint256"
        }
      ],
      "payable": false,
      "stateMutability": "view",
      "type": "function"
    },
    {
      "constant": true,
      "inputs": [],
      "name": "admin",
      "outputs": [
        {
          "internalType": "address",
          "name": "",
          "type": "address"
        }
      ],
      "payable": false,
      "stateMutability": "view",
      "type": "function"
    },
    {
      "constant": true,
      "inputs": [
        {
          "internalType": "uint256",
          "name": "",
          "type": "uint256"
        }
      ],
      "name": "books",
      "outputs": [
        {
          "internalType": "uint256",
          "name": "book_Id",
          "type": "uint256"
        },
        {
          "internalType": "string",
          "name": "book_Hash",
          "type": "string"
        },
        {
          "internalType": "uint256",
          "name": "book_Size",
          "type": "uint256"
        },
        {
          "internalType": "string",
          "name": "book_Name",
          "type": "string"
        },
        {
          "internalType": "string",
          "name": "book_Description",
          "type": "string"
        },
        {
          "internalType": "string",
          "name": "author",
          "type": "string"
        },
        {
          "internalType": "uint256",
          "name": "isbn",
          "type": "uint256"
        },
        {
          "internalType": "uint256",
          "name": "uploadTime",
          "type": "uint256"
        },
        {
          "internalType": "address",
          "name": "uploader",
          "type": "address"
        }
      ],
      "payable": false,
      "stateMutability": "view",
      "type": "function"
    },
    {
      "constant": true,
      "inputs": [],
      "name": "librarian",
      "outputs": [
        {
          "internalType": "address",
          "name": "",
          "type": "address"
        }
      ],
      "payable": false,
      "stateMutability": "view",
      "type": "function"
    },
    {
      "constant": true,
      "inputs": [
        {
          "internalType": "uint256",
          "name": "",
          "type": "uint256"
        }
      ],
      "name": "notes",
      "outputs": [
        {
          "internalType": "uint256",
          "name": "note_Id",
          "type": "uint256"
        },
        {
          "internalType": "string",
          "name": "note_Hash",
          "type": "string"
        },
        {
          "internalType": "uint256",
          "name": "note_Size",
          "type": "uint256"
        },
        {
          "internalType": "string",
          "name": "stream",
          "type": "string"
        },
        {
          "internalType": "string",
          "name": "subjectcode",
          "type": "string"
        },
        {
          "internalType": "string",
          "name": "teacher",
          "type": "string"
        },
        {
          "internalType": "string",
          "name": "date",
          "type": "string"
        },
        {
          "internalType": "uint256",
          "name": "uploadTime",
          "type": "uint256"
        },
        {
          "internalType": "address",
          "name": "uploader",
          "type": "address"
        },
        {
          "internalType": "uint256",
          "name": "reports",
          "type": "uint256"
        }
      ],
      "payable": false,
      "stateMutability": "view",
      "type": "function"
    },
    {
      "constant": true,
      "inputs": [
        {
          "internalType": "address",
          "name": "",
          "type": "address"
        },
        {
          "internalType": "uint256",
          "name": "",
          "type": "uint256"
        }
      ],
      "name": "reporters",
      "outputs": [
        {
          "internalType": "bool",
          "name": "reported",
          "type": "bool"
        }
      ],
      "payable": false,
      "stateMutability": "view",
      "type": "function"
    },
    {
      "constant": false,
      "inputs": [
        {
          "internalType": "address",
          "name": "_librarian",
          "type": "address"
        }
      ],
      "name": "changelibrarian",
      "outputs": [],
      "payable": false,
      "stateMutability": "nonpayable",
      "type": "function"
    },
    {
      "constant": false,
      "inputs": [
        {
          "internalType": "uint256",
          "name": "index",
          "type": "uint256"
        }
      ],
      "name": "deletebook",
      "outputs": [],
      "payable": false,
      "stateMutability": "nonpayable",
      "type": "function"
    },
    {
      "constant": false,
      "inputs": [
        {
          "internalType": "string",
          "name": "_book_Hash",
          "type": "string"
        },
        {
          "internalType": "uint256",
          "name": "_book_Size",
          "type": "uint256"
        },
        {
          "internalType": "string",
          "name": "_book_Name",
          "type": "string"
        },
        {
          "internalType": "string",
          "name": "_book_Description",
          "type": "string"
        },
        {
          "internalType": "string",
          "name": "_author",
          "type": "string"
        },
        {
          "internalType": "uint256",
          "name": "_isbn",
          "type": "uint256"
        }
      ],
      "name": "uploadBook",
      "outputs": [],
      "payable": false,
      "stateMutability": "nonpayable",
      "type": "function"
    },
    {
      "constant": false,
      "inputs": [
        {
          "internalType": "string",
          "name": "_note_Hash",
          "type": "string"
        },
        {
          "internalType": "uint256",
          "name": "_note_Size",
          "type": "uint256"
        },
        {
          "internalType": "string",
          "name": "_stream",
          "type": "string"
        },
        {
          "internalType": "string",
          "name": "_subjectcode",
          "type": "string"
        },
        {
          "internalType": "string",
          "name": "_teacher",
          "type": "string"
        },
        {
          "internalType": "string",
          "name": "_date",
          "type": "string"
        }
      ],
      "name": "uploadNote",
      "outputs": [],
      "payable": false,
      "stateMutability": "nonpayable",
      "type": "function"
    },
    {
      "constant": false,
      "inputs": [
        {
          "internalType": "uint256",
          "name": "index",
          "type": "uint256"
        }
      ],
      "name": "deletenote",
      "outputs": [],
      "payable": false,
      "stateMutability": "nonpayable",
      "type": "function"
    },
    {
      "constant": false,
      "inputs": [
        {
          "internalType": "uint256",
          "name": "index",
          "type": "uint256"
        }
      ],
      "name": "reportnote",
      "outputs": [],
      "payable": false,
      "stateMutability": "nonpayable",
      "type": "function"
    }
  ],
  "bytecode": "0x60806040526000600255600060035534801561001a57600080fd5b50336000806101000a81548173ffffffffffffffffffffffffffffffffffffffff021916908373ffffffffffffffffffffffffffffffffffffffff16021790555033600160006101000a81548173ffffffffffffffffffffffffffffffffffffffff021916908373ffffffffffffffffffffffffffffffffffffffff160217905550613033806100ab6000396000f3fe608060405234801561001057600080fd5b50600436106100cf5760003560e01c806363b64a6b1161008c578063c278a0fc11610066578063c278a0fc14610750578063e9cc89f4146109e4578063efea9ffe14610d05578063f851a44014610d23576100cf565b806363b64a6b1461049e57806368744046146104cc578063a437d45f14610706576100cf565b80630709d39c146100d45780630bdad6031461011857806329c37f911461014657806336e0862d14610164578063586b11ac146101ca57806361c3a7e6146101f8575b600080fd5b610116600480360360208110156100ea57600080fd5b81019080803573ffffffffffffffffffffffffffffffffffffffff169060200190929190505050610d6d565b005b6101446004803603602081101561012e57600080fd5b8101908080359060200190929190505050610e73565b005b61014e611896565b6040518082815260200191505060405180910390f35b6101b06004803603604081101561017a57600080fd5b81019080803573ffffffffffffffffffffffffffffffffffffffff1690602001909291908035906020019092919050505061189c565b604051808215151515815260200191505060405180910390f35b6101f6600480360360208110156101e057600080fd5b81019080803590602001909291905050506118d4565b005b6102246004803603602081101561020e57600080fd5b8101908080359060200190929190505050611b5f565b604051808b8152602001806020018a8152602001806020018060200180602001806020018981526020018873ffffffffffffffffffffffffffffffffffffffff1673ffffffffffffffffffffffffffffffffffffffff16815260200187815260200186810386528f818151815260200191508051906020019080838360005b838110156102be5780820151818401526020810190506102a3565b50505050905090810190601f1680156102eb5780820380516001836020036101000a031916815260200191505b5086810385528d818151815260200191508051906020019080838360005b83811015610324578082015181840152602081019050610309565b50505050905090810190601f1680156103515780820380516001836020036101000a031916815260200191505b5086810384528c818151815260200191508051906020019080838360005b8381101561038a57808201518184015260208101905061036f565b50505050905090810190601f1680156103b75780820380516001836020036101000a031916815260200191505b5086810383528b818151815260200191508051906020019080838360005b838110156103f05780820151818401526020810190506103d5565b50505050905090810190601f16801561041d5780820380516001836020036101000a031916815260200191505b5086810382528a818151815260200191508051906020019080838360005b8381101561045657808201518184015260208101905061043b565b50505050905090810190601f1680156104835780820380516001836020036101000a031916815260200191505b509f5050505050505050505050505050505060405180910390f35b6104ca600480360360208110156104b457600080fd5b8101908080359060200190929190505050611ecb565b005b6104f8600480360360208110156104e257600080fd5b81019080803590602001909291905050506121a3565b604051808a8152602001806020018981526020018060200180602001806020018881526020018781526020018673ffffffffffffffffffffffffffffffffffffffff1673ffffffffffffffffffffffffffffffffffffffff16815260200185810385528d818151815260200191508051906020019080838360005b8381101561058e578082015181840152602081019050610573565b50505050905090810190601f1680156105bb5780820380516001836020036101000a031916815260200191505b5085810384528b818151815260200191508051906020019080838360005b838110156105f45780820151818401526020810190506105d9565b50505050905090810190601f1680156106215780820380516001836020036101000a031916815260200191505b5085810383528a818151815260200191508051906020019080838360005b8381101561065a57808201518184015260208101905061063f565b50505050905090810190601f1680156106875780820380516001836020036101000a031916815260200191505b50858103825289818151815260200191508051906020019080838360005b838110156106c05780820151818401526020810190506106a5565b50505050905090810190601f1680156106ed5780820380516001836020036101000a031916815260200191505b509d505050505050505050505050505060405180910390f35b61070e612471565b604051808273ffffffffffffffffffffffffffffffffffffffff1673ffffffffffffffffffffffffffffffffffffffff16815260200191505060405180910390f35b6109e2600480360360c081101561076657600080fd5b810190808035906020019064010000000081111561078357600080fd5b82018360208201111561079557600080fd5b803590602001918460018302840111640100000000831117156107b757600080fd5b91908080601f016020809104026020016040519081016040528093929190818152602001838380828437600081840152601f19601f820116905080830192505050505050509192919290803590602001909291908035906020019064010000000081111561082457600080fd5b82018360208201111561083657600080fd5b8035906020019184600183028401116401000000008311171561085857600080fd5b91908080601f016020809104026020016040519081016040528093929190818152602001838380828437600081840152601f19601f820116905080830192505050505050509192919290803590602001906401000000008111156108bb57600080fd5b8201836020820111156108cd57600080fd5b803590602001918460018302840111640100000000831117156108ef57600080fd5b91908080601f016020809104026020016040519081016040528093929190818152602001838380828437600081840152601f19601f8201169050808301925050505050505091929192908035906020019064010000000081111561095257600080fd5b82018360208201111561096457600080fd5b8035906020019184600183028401116401000000008311171561098657600080fd5b91908080601f016020809104026020016040519081016040528093929190818152602001838380828437600081840152601f19601f82011690508083019250505050505050919291929080359060200190929190505050612497565b005b610d03600480360360c08110156109fa57600080fd5b8101908080359060200190640100000000811115610a1757600080fd5b820183602082011115610a2957600080fd5b80359060200191846001830284011164010000000083111715610a4b57600080fd5b91908080601f016020809104026020016040519081016040528093929190818152602001838380828437600081840152601f19601f8201169050808301925050505050505091929192908035906020019092919080359060200190640100000000811115610ab857600080fd5b820183602082011115610aca57600080fd5b80359060200191846001830284011164010000000083111715610aec57600080fd5b91908080601f016020809104026020016040519081016040528093929190818152602001838380828437600081840152601f19601f82011690508083019250505050505050919291929080359060200190640100000000811115610b4f57600080fd5b820183602082011115610b6157600080fd5b80359060200191846001830284011164010000000083111715610b8357600080fd5b91908080601f016020809104026020016040519081016040528093929190818152602001838380828437600081840152601f19601f82011690508083019250505050505050919291929080359060200190640100000000811115610be657600080fd5b820183602082011115610bf857600080fd5b80359060200191846001830284011164010000000083111715610c1a57600080fd5b91908080601f016020809104026020016040519081016040528093929190818152602001838380828437600081840152601f19601f82011690508083019250505050505050919291929080359060200190640100000000811115610c7d57600080fd5b820183602082011115610c8f57600080fd5b80359060200191846001830284011164010000000083111715610cb157600080fd5b91908080601f016020809104026020016040519081016040528093929190818152602001838380828437600081840152601f19601f82011690508083019250505050505050919291929050505061298d565b005b610d0d612e3d565b6040518082815260200191505060405180910390f35b610d2b612e43565b604051808273ffffffffffffffffffffffffffffffffffffffff1673ffffffffffffffffffffffffffffffffffffffff16815260200191505060405180910390f35b6000809054906101000a900473ffffffffffffffffffffffffffffffffffffffff1673ffffffffffffffffffffffffffffffffffffffff163373ffffffffffffffffffffffffffffffffffffffff1614610e2f576040517f08c379a000000000000000000000000000000000000000000000000000000000815260040180806020018281038252601a8152602001807f4f6e6c792041646d696e2063616e20616363657373207468697300000000000081525060200191505060405180910390fd5b80600160006101000a81548173ffffffffffffffffffffffffffffffffffffffff021916908373ffffffffffffffffffffffffffffffffffffffff16021790555050565b806005600082815260200190815260200160002060080160009054906101000a900473ffffffffffffffffffffffffffffffffffffffff1673ffffffffffffffffffffffffffffffffffffffff163373ffffffffffffffffffffffffffffffffffffffff161480610f315750600160009054906101000a900473ffffffffffffffffffffffffffffffffffffffff1673ffffffffffffffffffffffffffffffffffffffff163373ffffffffffffffffffffffffffffffffffffffff16145b610f86576040517f08c379a0000000000000000000000000000000000000000000000000000000008152600401808060200182810382526022815260200180612fdd6022913960400191505060405180910390fd5b60035482146116ba576040518061014001604052808381526020016005600060035481526020019081526020016000206001018054600181600116156101000203166002900480601f01602080910402602001604051908101604052809291908181526020018280546001816001161561010002031660029004801561104d5780601f106110225761010080835404028352916020019161104d565b820191906000526020600020905b81548152906001019060200180831161103057829003601f168201915b505050505081526020016005600060035481526020019081526020016000206002015481526020016005600060035481526020019081526020016000206003018054600181600116156101000203166002900480601f0160208091040260200160405190810160405280929190818152602001828054600181600116156101000203166002900480156111215780601f106110f657610100808354040283529160200191611121565b820191906000526020600020905b81548152906001019060200180831161110457829003601f168201915b505050505081526020016005600060035481526020019081526020016000206004018054600181600116156101000203166002900480601f0160208091040260200160405190810160405280929190818152602001828054600181600116156101000203166002900480156111d75780601f106111ac576101008083540402835291602001916111d7565b820191906000526020600020905b8154815290600101906020018083116111ba57829003601f168201915b505050505081526020016005600060035481526020019081526020016000206005018054600181600116156101000203166002900480601f01602080910402602001604051908101604052809291908181526020018280546001816001161561010002031660029004801561128d5780601f106112625761010080835404028352916020019161128d565b820191906000526020600020905b81548152906001019060200180831161127057829003601f168201915b505050505081526020016005600060035481526020019081526020016000206006018054600181600116156101000203166002900480601f0160208091040260200160405190810160405280929190818152602001828054600181600116156101000203166002900480156113435780601f1061131857610100808354040283529160200191611343565b820191906000526020600020905b81548152906001019060200180831161132657829003601f168201915b5050505050815260200160056000600354815260200190815260200160002060070154815260200160056000600354815260200190815260200160002060080160009054906101000a900473ffffffffffffffffffffffffffffffffffffffff1673ffffffffffffffffffffffffffffffffffffffff1681526020016000815250600560008481526020019081526020016000206000820151816000015560208201518160010190805190602001906113fd929190612e68565b50604082015181600201556060820151816003019080519060200190611424929190612e68565b506080820151816004019080519060200190611441929190612e68565b5060a082015181600501908051906020019061145e929190612e68565b5060c082015181600601908051906020019061147b929190612e68565b5060e082015181600701556101008201518160080160006101000a81548173ffffffffffffffffffffffffffffffffffffffff021916908373ffffffffffffffffffffffffffffffffffffffff1602179055506101208201518160090155905050604051806101400160405280600081526020016040518060200160405280600081525081526020016000815260200160405180602001604052806000815250815260200160405180602001604052806000815250815260200160405180602001604052806000815250815260200160405180602001604052806000815250815260200160008152602001600073ffffffffffffffffffffffffffffffffffffffff16815260200160008152506005600060025481526020019081526020016000206000820151816000015560208201518160010190805190602001906115c3929190612e68565b506040820151816002015560608201518160030190805190602001906115ea929190612e68565b506080820151816004019080519060200190611607929190612e68565b5060a0820151816005019080519060200190611624929190612e68565b5060c0820151816006019080519060200190611641929190612e68565b5060e082015181600701556101008201518160080160006101000a81548173ffffffffffffffffffffffffffffffffffffffff021916908373ffffffffffffffffffffffffffffffffffffffff160217905550610120820151816009015590505060036000815480929190600190039190505550611892565b604051806101400160405280600081526020016040518060200160405280600081525081526020016000815260200160405180602001604052806000815250815260200160405180602001604052806000815250815260200160405180602001604052806000815250815260200160405180602001604052806000815250815260200160008152602001600073ffffffffffffffffffffffffffffffffffffffff16815260200160008152506005600084815260200190815260200160002060008201518160000155602082015181600101908051906020019061179f929190612e68565b506040820151816002015560608201518160030190805190602001906117c6929190612e68565b5060808201518160040190805190602001906117e3929190612e68565b5060a0820151816005019080519060200190611800929190612e68565b5060c082015181600601908051906020019061181d929190612e68565b5060e082015181600701556101008201518160080160006101000a81548173ffffffffffffffffffffffffffffffffffffffff021916908373ffffffffffffffffffffffffffffffffffffffff1602179055506101208201518160090155905050600360008154809291906001900391905055505b5050565b60025481565b6006602052816000526040600020602052806000526040600020600091509150508060000160009054906101000a900460ff16905081565b806005600082815260200190815260200160002060080160009054906101000a900473ffffffffffffffffffffffffffffffffffffffff1673ffffffffffffffffffffffffffffffffffffffff163373ffffffffffffffffffffffffffffffffffffffff1614156119ad576040517f08c379a000000000000000000000000000000000000000000000000000000000815260040180806020018281038252601b8152602001807f55706c6f616465722063616e2774207265706f7274206e6f746573000000000081525060200191505060405180910390fd5b60006005600084815260200190815260200160002060090154905060001515600660003373ffffffffffffffffffffffffffffffffffffffff1673ffffffffffffffffffffffffffffffffffffffff168152602001908152602001600020600085815260200190815260200160002060000160009054906101000a900460ff1615151415611ac95780806001019150508060056000858152602001908152602001600020600901819055506001600660003373ffffffffffffffffffffffffffffffffffffffff1673ffffffffffffffffffffffffffffffffffffffff168152602001908152602001600020600085815260200190815260200160002060000160006101000a81548160ff021916908315150217905550611b5a565b8080600190039150508060056000858152602001908152602001600020600901819055506000600660003373ffffffffffffffffffffffffffffffffffffffff1673ffffffffffffffffffffffffffffffffffffffff168152602001908152602001600020600085815260200190815260200160002060000160006101000a81548160ff0219169083151502179055505b505050565b6005602052806000526040600020600091509050806000015490806001018054600181600116156101000203166002900480601f016020809104026020016040519081016040528092919081815260200182805460018160011615610100020316600290048015611c115780601f10611be657610100808354040283529160200191611c11565b820191906000526020600020905b815481529060010190602001808311611bf457829003601f168201915b505050505090806002015490806003018054600181600116156101000203166002900480601f016020809104026020016040519081016040528092919081815260200182805460018160011615610100020316600290048015611cb55780601f10611c8a57610100808354040283529160200191611cb5565b820191906000526020600020905b815481529060010190602001808311611c9857829003601f168201915b505050505090806004018054600181600116156101000203166002900480601f016020809104026020016040519081016040528092919081815260200182805460018160011615610100020316600290048015611d535780601f10611d2857610100808354040283529160200191611d53565b820191906000526020600020905b815481529060010190602001808311611d3657829003601f168201915b505050505090806005018054600181600116156101000203166002900480601f016020809104026020016040519081016040528092919081815260200182805460018160011615610100020316600290048015611df15780601f10611dc657610100808354040283529160200191611df1565b820191906000526020600020905b815481529060010190602001808311611dd457829003601f168201915b505050505090806006018054600181600116156101000203166002900480601f016020809104026020016040519081016040528092919081815260200182805460018160011615610100020316600290048015611e8f5780601f10611e6457610100808354040283529160200191611e8f565b820191906000526020600020905b815481529060010190602001808311611e7257829003601f168201915b5050505050908060070154908060080160009054906101000a900473ffffffffffffffffffffffffffffffffffffffff1690806009015490508a565b600160009054906101000a900473ffffffffffffffffffffffffffffffffffffffff1673ffffffffffffffffffffffffffffffffffffffff163373ffffffffffffffffffffffffffffffffffffffff1614611f8e576040517f08c379a000000000000000000000000000000000000000000000000000000000815260040180806020018281038252601e8152602001807f4f6e6c79206c696272617269616e2063616e206163636573732074686973000081525060200191505060405180910390fd5b600460006001600254038152602001908152602001600020600460008381526020019081526020016000206000820154816000015560018201816001019080546001816001161561010002031660029004611fea929190612ee8565b50600282015481600201556003820181600301908054600181600116156101000203166002900461201c929190612ee8565b5060048201816004019080546001816001161561010002031660029004612044929190612ee8565b506005820181600501908054600181600116156101000203166002900461206c929190612ee8565b5060068201548160060155600782015481600701556008820160009054906101000a900473ffffffffffffffffffffffffffffffffffffffff168160080160006101000a81548173ffffffffffffffffffffffffffffffffffffffff021916908373ffffffffffffffffffffffffffffffffffffffff16021790555090505060046000600160025403815260200190815260200160002060008082016000905560018201600061211c9190612f6f565b60028201600090556003820160006121349190612f6f565b6004820160006121449190612f6f565b6005820160006121549190612f6f565b600682016000905560078201600090556008820160006101000a81549073ffffffffffffffffffffffffffffffffffffffff021916905550506002600081548092919060019003919050555050565b6004602052806000526040600020600091509050806000015490806001018054600181600116156101000203166002900480601f0160208091040260200160405190810160405280929190818152602001828054600181600116156101000203166002900480156122555780601f1061222a57610100808354040283529160200191612255565b820191906000526020600020905b81548152906001019060200180831161223857829003601f168201915b505050505090806002015490806003018054600181600116156101000203166002900480601f0160208091040260200160405190810160405280929190818152602001828054600181600116156101000203166002900480156122f95780601f106122ce576101008083540402835291602001916122f9565b820191906000526020600020905b8154815290600101906020018083116122dc57829003601f168201915b505050505090806004018054600181600116156101000203166002900480601f0160208091040260200160405190810160405280929190818152602001828054600181600116156101000203166002900480156123975780601f1061236c57610100808354040283529160200191612397565b820191906000526020600020905b81548152906001019060200180831161237a57829003601f168201915b505050505090806005018054600181600116156101000203166002900480601f0160208091040260200160405190810160405280929190818152602001828054600181600116156101000203166002900480156124355780601f1061240a57610100808354040283529160200191612435565b820191906000526020600020905b81548152906001019060200180831161241857829003601f168201915b5050505050908060060154908060070154908060080160009054906101000a900473ffffffffffffffffffffffffffffffffffffffff16905089565b600160009054906101000a900473ffffffffffffffffffffffffffffffffffffffff1681565b600160009054906101000a900473ffffffffffffffffffffffffffffffffffffffff1673ffffffffffffffffffffffffffffffffffffffff163373ffffffffffffffffffffffffffffffffffffffff161461255a576040517f08c379a000000000000000000000000000000000000000000000000000000000815260040180806020018281038252601e8152602001807f4f6e6c79206c696272617269616e2063616e206163636573732074686973000081525060200191505060405180910390fd5b600086511161256857600080fd5b600084511161257657600080fd5b600083511161258457600080fd5b600082511161259257600080fd5b6000811161259f57600080fd5b600073ffffffffffffffffffffffffffffffffffffffff163373ffffffffffffffffffffffffffffffffffffffff1614156125d957600080fd5b600085116125e657600080fd5b60026000815480929190600101919050555060405180610120016040528060025481526020018781526020018681526020018581526020018481526020018381526020018281526020014281526020013373ffffffffffffffffffffffffffffffffffffffff1681525060046000600254815260200190815260200160002060008201518160000155602082015181600101908051906020019061268b929190612e68565b506040820151816002015560608201518160030190805190602001906126b2929190612e68565b5060808201518160040190805190602001906126cf929190612e68565b5060a08201518160050190805190602001906126ec929190612e68565b5060c0820151816006015560e082015181600701556101008201518160080160006101000a81548173ffffffffffffffffffffffffffffffffffffffff021916908373ffffffffffffffffffffffffffffffffffffffff1602179055509050507f4656d7d537715af632c657303d2b1185835c2526b8745bbae59f19b40f8b9caa6002548787878787874233604051808a8152602001806020018981526020018060200180602001806020018881526020018781526020018673ffffffffffffffffffffffffffffffffffffffff1673ffffffffffffffffffffffffffffffffffffffff16815260200185810385528d818151815260200191508051906020019080838360005b8381101561280e5780820151818401526020810190506127f3565b50505050905090810190601f16801561283b5780820380516001836020036101000a031916815260200191505b5085810384528b818151815260200191508051906020019080838360005b83811015612874578082015181840152602081019050612859565b50505050905090810190601f1680156128a15780820380516001836020036101000a031916815260200191505b5085810383528a818151815260200191508051906020019080838360005b838110156128da5780820151818401526020810190506128bf565b50505050905090810190601f1680156129075780820380516001836020036101000a031916815260200191505b50858103825289818151815260200191508051906020019080838360005b83811015612940578082015181840152602081019050612925565b50505050905090810190601f16801561296d5780820380516001836020036101000a031916815260200191505b509d505050505050505050505050505060405180910390a1505050505050565b600086511161299b57600080fd5b60008351116129a957600080fd5b60008251116129b757600080fd5b60008151116129c557600080fd5b600085116129d257600080fd5b600073ffffffffffffffffffffffffffffffffffffffff163373ffffffffffffffffffffffffffffffffffffffff161415612a0c57600080fd5b60036000815480929190600101919050555060405180610140016040528060035481526020018781526020018681526020018581526020018481526020018381526020018281526020014281526020013373ffffffffffffffffffffffffffffffffffffffff1681526020016000815250600560006003548152602001908152602001600020600082015181600001556020820151816001019080519060200190612ab8929190612e68565b50604082015181600201556060820151816003019080519060200190612adf929190612e68565b506080820151816004019080519060200190612afc929190612e68565b5060a0820151816005019080519060200190612b19929190612e68565b5060c0820151816006019080519060200190612b36929190612e68565b5060e082015181600701556101008201518160080160006101000a81548173ffffffffffffffffffffffffffffffffffffffff021916908373ffffffffffffffffffffffffffffffffffffffff16021790555061012082015181600901559050507fb45bad31593e263efbbe255e8df56675804be8bc73e5bb78390bd5f8fc2acd096003548787878787874233604051808a815260200180602001898152602001806020018060200180602001806020018881526020018773ffffffffffffffffffffffffffffffffffffffff1673ffffffffffffffffffffffffffffffffffffffff16815260200186810386528e818151815260200191508051906020019080838360005b83811015612c57578082015181840152602081019050612c3c565b50505050905090810190601f168015612c845780820380516001836020036101000a031916815260200191505b5086810385528c818151815260200191508051906020019080838360005b83811015612cbd578082015181840152602081019050612ca2565b50505050905090810190601f168015612cea5780820380516001836020036101000a031916815260200191505b5086810384528b818151815260200191508051906020019080838360005b83811015612d23578082015181840152602081019050612d08565b50505050905090810190601f168015612d505780820380516001836020036101000a031916815260200191505b5086810383528a818151815260200191508051906020019080838360005b83811015612d89578082015181840152602081019050612d6e565b50505050905090810190601f168015612db65780820380516001836020036101000a031916815260200191505b50868103825289818151815260200191508051906020019080838360005b83811015612def578082015181840152602081019050612dd4565b50505050905090810190601f168015612e1c5780820380516001836020036101000a031916815260200191505b509e50505050505050505050505050505060405180910390a1505050505050565b60035481565b6000809054906101000a900473ffffffffffffffffffffffffffffffffffffffff1681565b828054600181600116156101000203166002900490600052602060002090601f016020900481019282601f10612ea957805160ff1916838001178555612ed7565b82800160010185558215612ed7579182015b82811115612ed6578251825591602001919060010190612ebb565b5b509050612ee49190612fb7565b5090565b828054600181600116156101000203166002900490600052602060002090601f016020900481019282601f10612f215780548555612f5e565b82800160010185558215612f5e57600052602060002091601f016020900482015b82811115612f5d578254825591600101919060010190612f42565b5b509050612f6b9190612fb7565b5090565b50805460018160011615610100020316600290046000825580601f10612f955750612fb4565b601f016020900490600052602060002090810190612fb39190612fb7565b5b50565b612fd991905b80821115612fd5576000816000905550600101612fbd565b5090565b9056fe4f6e6c79204e6f74652055706c6f616465722063616e206163636573732074686973a265627a7a72315820cf1a31f22ad0b24e9c8c29a2ca10a34129736e9b53ad5becad5769acfbbe2eb864736f6c63430005100032",
  "source": "pragma solidity ^0.5.16;\n\ncontract Library {\n    \n  address public admin;\n  address public librarian;\n  \n  uint256 public BookCount = 0;\n  uint256 public NoteCount = 0;\n  \n  constructor() public {\n      admin = msg.sender;\n      librarian = msg.sender;\n  }\n  \n  struct Book {\n    uint256 book_Id;\n    string book_Hash;\n    uint256 book_Size;\n    string book_Name;\n    string book_Description;\n    string author;\n    uint256 isbn;\n    uint256 uploadTime;\n    address uploader;\n  }\n  mapping(uint256 => Book) public books;\n\n  struct Note {\n    uint256 note_Id;\n    string note_Hash;\n    uint256 note_Size;\n    string stream;\n    string subjectcode;\n    string teacher;\n    string date;\n    uint256 uploadTime;\n    address uploader;\n    uint reports;\n  }\n    \n  mapping(uint256 => Note) public notes;\n    \n  struct Reporter{\n        bool reported;\n    }\n  \n  mapping(address => mapping(uint =>  Reporter)) public reporters;\n\n  event BookUploaded(uint256 book_Id,string book_Hash,uint256 book_Size,string book_Name,string book_Description,string author,uint256 isbn,uint256 uploadTime,address uploader);\n  event NoteUploaded(uint256 note_Id,string note_Hash,uint256 note_Size,string stream,string subjectcode,string teacher,string date,uint256 uploadTime,address uploader);\n    \n  \n\n  modifier onlyadmin(){\n        require(msg.sender==admin,\"Only Admin can access this\");\n        _;\n    }\n    \n  modifier onlylibrarian(){\n        require(msg.sender==librarian,\"Only librarian can access this\");\n        _;\n    }\n    \n  modifier onlyUploaderorLibrarian(uint256 _index){\n        require(msg.sender==notes[_index].uploader || msg.sender==librarian,\"Only Note Uploader can access this\");\n        _;\n    }\n    \n  modifier notuploader(uint256 _index){\n        require(msg.sender!=notes[_index].uploader,\"Uploader can't report notes\");\n        _;\n    }\n\n  function changelibrarian(address _librarian) public onlyadmin() {\n        librarian = _librarian;\n    }\n    \n    \n  function deletebook(uint index) public onlylibrarian(){\n        books[index] = books[BookCount-1];\n        delete books[BookCount-1];\n        BookCount --;\n    }\n    \n  function uploadBook(string memory _book_Hash,uint256 _book_Size,string memory _book_Name,string memory _book_Description,string memory _author,uint256 _isbn) public onlylibrarian() {\n    \n    require(bytes(_book_Hash).length > 0);\n    require(bytes(_book_Name).length > 0);\n    require(bytes(_book_Description).length > 0);\n    require(bytes(_author).length > 0);\n    require(_isbn > 0);\n    require(msg.sender != address(0));\n    require(_book_Size > 0);\n\n    BookCount++;\n\n    books[BookCount] = Book(BookCount,_book_Hash,_book_Size,_book_Name,_book_Description,_author,_isbn,now,msg.sender);\n\n    emit BookUploaded(BookCount,_book_Hash,_book_Size,_book_Name,_book_Description,_author,_isbn,now,msg.sender);\n  }\n  \n  function uploadNote(string memory _note_Hash,uint256 _note_Size,string memory _stream,string memory _subjectcode,string memory _teacher,string memory _date) public {\n    \n    require(bytes(_note_Hash).length > 0);\n    require(bytes(_subjectcode).length > 0);\n    require(bytes(_teacher).length > 0);\n    require(bytes(_date).length > 0);\n    require(_note_Size > 0);\n    require(msg.sender != address(0));\n    \n\n    NoteCount++;\n\n    notes[NoteCount] = Note(NoteCount,_note_Hash,_note_Size,_stream,_subjectcode,_teacher,_date,now,msg.sender,0);\n    emit NoteUploaded(NoteCount,_note_Hash,_note_Size,_stream,_subjectcode,_teacher,_date,now,msg.sender);\n    }\n    \n  function deletenote(uint index) public onlyUploaderorLibrarian(index){\n        if(index != NoteCount){\n        notes[index]= Note(index,notes[NoteCount].note_Hash,notes[NoteCount].note_Size,notes[NoteCount].stream,notes[NoteCount].subjectcode,notes[NoteCount].teacher,notes[NoteCount].date,notes[NoteCount].uploadTime,notes[NoteCount].uploader,0);\n        notes[BookCount]= Note(0,\"\",0,\"\",\"\",\"\",\"\",0,address(0),0);\n        NoteCount --;}\n        else\n        {\n            notes[index]= Note(0,\"\",0,\"\",\"\",\"\",\"\",0,address(0),0);\n            NoteCount--;\n        }\n    }\n  function reportnote(uint index) public notuploader(index){\n    uint before = notes[index].reports;\n    // require(!reporters[msg.sender].reported);\n    if(reporters[msg.sender][index].reported==false){\n\n    before++;\n    notes[index].reports = before;\n    reporters[msg.sender][index].reported=true;\n    }\n    else{\n    before--;\n    notes[index].reports = before;\n    reporters[msg.sender][index].reported=false;\n    }\n  }\n  \n}\n",
  "sourcePath": "/home/danger-ahead/Documents/open-source/Hacknpitch/src/contracts/Library.sol",
  "compiler": {
    "name": "solc",
    "version": "0.5.16+commit.9c3226ce.Emscripten.clang"
  },
  "schemaVersion": "3.4.3",
  "updatedAt": "2021-09-23T10:54:09.771Z",
  "networkType": "ethereum",
  "devdoc": {
    "methods": {}
  },
  "userdoc": {
    "methods": {}
  }
}