{
  "contractName": "RentalAgreement",
  "abi": [
    {
      "inputs": [],
      "payable": false,
      "stateMutability": "nonpayable",
      "type": "constructor"
    },
    {
      "constant": true,
      "inputs": [
        {
          "internalType": "uint256",
          "name": "",
          "type": "uint256"
        }
      ],
      "name": "Rent_by_No",
      "outputs": [
        {
          "internalType": "uint256",
          "name": "rentno",
          "type": "uint256"
        },
        {
          "internalType": "uint256",
          "name": "roomid",
          "type": "uint256"
        },
        {
          "internalType": "uint256",
          "name": "agreementid",
          "type": "uint256"
        },
        {
          "internalType": "string",
          "name": "Roomname",
          "type": "string"
        },
        {
          "internalType": "string",
          "name": "RoomAddresss",
          "type": "string"
        },
        {
          "internalType": "uint256",
          "name": "rent_per_month",
          "type": "uint256"
        },
        {
          "internalType": "uint256",
          "name": "timestamp",
          "type": "uint256"
        },
        {
          "internalType": "address payable",
          "name": "tenantAddress",
          "type": "address"
        },
        {
          "internalType": "address payable",
          "name": "landlordAddress",
          "type": "address"
        }
      ],
      "payable": false,
      "stateMutability": "view",
      "type": "function"
    },
    {
      "constant": true,
      "inputs": [
        {
          "internalType": "uint256",
          "name": "",
          "type": "uint256"
        }
      ],
      "name": "RequestAgreementTermination_By_No",
      "outputs": [
        {
          "internalType": "uint256",
          "name": "terminationno",
          "type": "uint256"
        },
        {
          "internalType": "uint256",
          "name": "roomid",
          "type": "uint256"
        },
        {
          "internalType": "uint256",
          "name": "agreementid",
          "type": "uint256"
        },
        {
          "internalType": "uint256",
          "name": "timestamp",
          "type": "uint256"
        },
        {
          "internalType": "address",
          "name": "landlord",
          "type": "address"
        },
        {
          "internalType": "address",
          "name": "tenant",
          "type": "address"
        },
        {
          "internalType": "bool",
          "name": "terminated",
          "type": "bool"
        },
        {
          "internalType": "bool",
          "name": "rejected",
          "type": "bool"
        },
        {
          "internalType": "bool",
          "name": "completed",
          "type": "bool"
        }
      ],
      "payable": false,
      "stateMutability": "view",
      "type": "function"
    },
    {
      "constant": true,
      "inputs": [
        {
          "internalType": "uint256",
          "name": "",
          "type": "uint256"
        }
      ],
      "name": "RoomAgreement_by_No",
      "outputs": [
        {
          "internalType": "uint256",
          "name": "roomid",
          "type": "uint256"
        },
        {
          "internalType": "uint256",
          "name": "agreementid",
          "type": "uint256"
        },
        {
          "internalType": "string",
          "name": "Roomname",
          "type": "string"
        },
        {
          "internalType": "string",
          "name": "RoomAddresss",
          "type": "string"
        },
        {
          "internalType": "uint256",
          "name": "rent_per_month",
          "type": "uint256"
        },
        {
          "internalType": "uint256",
          "name": "securityDeposit",
          "type": "uint256"
        },
        {
          "internalType": "uint256",
          "name": "commisionpercentage",
          "type": "uint256"
        },
        {
          "internalType": "uint256",
          "name": "lockInPeriod",
          "type": "uint256"
        },
        {
          "internalType": "uint256",
          "name": "timestamp",
          "type": "uint256"
        },
        {
          "internalType": "address payable",
          "name": "tenantAddress",
          "type": "address"
        },
        {
          "internalType": "address payable",
          "name": "landlordAddress",
          "type": "address"
        }
      ],
      "payable": false,
      "stateMutability": "view",
      "type": "function"
    },
    {
      "constant": true,
      "inputs": [
        {
          "internalType": "uint256",
          "name": "",
          "type": "uint256"
        }
      ],
      "name": "Room_by_No",
      "outputs": [
        {
          "internalType": "uint256",
          "name": "roomid",
          "type": "uint256"
        },
        {
          "internalType": "uint256",
          "name": "agreementid",
          "type": "uint256"
        },
        {
          "internalType": "string",
          "name": "housename",
          "type": "string"
        },
        {
          "internalType": "string",
          "name": "houseaddress",
          "type": "string"
        },
        {
          "internalType": "uint256",
          "name": "rent_per_month",
          "type": "uint256"
        },
        {
          "internalType": "uint256",
          "name": "securityDeposit",
          "type": "uint256"
        },
        {
          "internalType": "uint256",
          "name": "timestamp",
          "type": "uint256"
        },
        {
          "internalType": "bool",
          "name": "vacant",
          "type": "bool"
        },
        {
          "internalType": "address payable",
          "name": "landlord",
          "type": "address"
        },
        {
          "internalType": "address payable",
          "name": "currentTenant",
          "type": "address"
        },
        {
          "internalType": "uint256",
          "name": "reports",
          "type": "uint256"
        },
        {
          "internalType": "bool",
          "name": "disableroom",
          "type": "bool"
        }
      ],
      "payable": false,
      "stateMutability": "view",
      "type": "function"
    },
    {
      "constant": true,
      "inputs": [],
      "name": "commisionpercentage",
      "outputs": [
        {
          "internalType": "uint256",
          "name": "",
          "type": "uint256"
        }
      ],
      "payable": false,
      "stateMutability": "view",
      "type": "function"
    },
    {
      "constant": true,
      "inputs": [],
      "name": "no_of_agreement",
      "outputs": [
        {
          "internalType": "uint256",
          "name": "",
          "type": "uint256"
        }
      ],
      "payable": false,
      "stateMutability": "view",
      "type": "function"
    },
    {
      "constant": true,
      "inputs": [],
      "name": "no_of_rent",
      "outputs": [
        {
          "internalType": "uint256",
          "name": "",
          "type": "uint256"
        }
      ],
      "payable": false,
      "stateMutability": "view",
      "type": "function"
    },
    {
      "constant": true,
      "inputs": [],
      "name": "no_of_rooms",
      "outputs": [
        {
          "internalType": "uint256",
          "name": "",
          "type": "uint256"
        }
      ],
      "payable": false,
      "stateMutability": "view",
      "type": "function"
    },
    {
      "constant": true,
      "inputs": [],
      "name": "no_of_terminationrequest",
      "outputs": [
        {
          "internalType": "uint256",
          "name": "",
          "type": "uint256"
        }
      ],
      "payable": false,
      "stateMutability": "view",
      "type": "function"
    },
    {
      "constant": true,
      "inputs": [
        {
          "internalType": "address",
          "name": "",
          "type": "address"
        },
        {
          "internalType": "uint256",
          "name": "",
          "type": "uint256"
        }
      ],
      "name": "reporters",
      "outputs": [
        {
          "internalType": "bool",
          "name": "reported",
          "type": "bool"
        }
      ],
      "payable": false,
      "stateMutability": "view",
      "type": "function"
    },
    {
      "constant": true,
      "inputs": [
        {
          "internalType": "uint256",
          "name": "",
          "type": "uint256"
        },
        {
          "internalType": "uint256",
          "name": "",
          "type": "uint256"
        }
      ],
      "name": "terminationreq",
      "outputs": [
        {
          "internalType": "bool",
          "name": "requested",
          "type": "bool"
        }
      ],
      "payable": false,
      "stateMutability": "view",
      "type": "function"
    },
    {
      "constant": false,
      "inputs": [
        {
          "internalType": "string",
          "name": "_housename",
          "type": "string"
        },
        {
          "internalType": "string",
          "name": "_houseaddress",
          "type": "string"
        },
        {
          "internalType": "uint256",
          "name": "_rentcost",
          "type": "uint256"
        },
        {
          "internalType": "uint256",
          "name": "_securitydeposit",
          "type": "uint256"
        }
      ],
      "name": "addRoom",
      "outputs": [],
      "payable": false,
      "stateMutability": "nonpayable",
      "type": "function"
    },
    {
      "constant": false,
      "inputs": [
        {
          "internalType": "uint256",
          "name": "_index",
          "type": "uint256"
        }
      ],
      "name": "signAgreement",
      "outputs": [],
      "payable": true,
      "stateMutability": "payable",
      "type": "function"
    },
    {
      "constant": false,
      "inputs": [
        {
          "internalType": "uint256",
          "name": "_index",
          "type": "uint256"
        }
      ],
      "name": "payRent",
      "outputs": [],
      "payable": true,
      "stateMutability": "payable",
      "type": "function"
    },
    {
      "constant": false,
      "inputs": [
        {
          "internalType": "uint256",
          "name": "_index",
          "type": "uint256"
        }
      ],
      "name": "agreementCompleted",
      "outputs": [],
      "payable": true,
      "stateMutability": "payable",
      "type": "function"
    },
    {
      "constant": false,
      "inputs": [
        {
          "internalType": "uint256",
          "name": "_index",
          "type": "uint256"
        },
        {
          "internalType": "uint256",
          "name": "_terminateno",
          "type": "uint256"
        }
      ],
      "name": "agreementTerminated",
      "outputs": [],
      "payable": false,
      "stateMutability": "nonpayable",
      "type": "function"
    },
    {
      "constant": false,
      "inputs": [
        {
          "internalType": "uint256",
          "name": "_index",
          "type": "uint256"
        },
        {
          "internalType": "uint256",
          "name": "_agreementno",
          "type": "uint256"
        },
        {
          "internalType": "uint256",
          "name": "_terminateno",
          "type": "uint256"
        }
      ],
      "name": "reject",
      "outputs": [],
      "payable": false,
      "stateMutability": "nonpayable",
      "type": "function"
    },
    {
      "constant": false,
      "inputs": [
        {
          "internalType": "uint256",
          "name": "_index",
          "type": "uint256"
        },
        {
          "internalType": "uint256",
          "name": "_agreementid",
          "type": "uint256"
        }
      ],
      "name": "requestTermination",
      "outputs": [],
      "payable": false,
      "stateMutability": "nonpayable",
      "type": "function"
    },
    {
      "constant": false,
      "inputs": [
        {
          "internalType": "uint256",
          "name": "_commision",
          "type": "uint256"
        }
      ],
      "name": "changeCommision",
      "outputs": [],
      "payable": false,
      "stateMutability": "nonpayable",
      "type": "function"
    },
    {
      "constant": false,
      "inputs": [
        {
          "internalType": "uint256",
          "name": "_index",
          "type": "uint256"
        }
      ],
      "name": "diableRoom",
      "outputs": [],
      "payable": false,
      "stateMutability": "nonpayable",
      "type": "function"
    },
    {
      "constant": false,
      "inputs": [],
      "name": "Admin",
      "outputs": [
        {
          "internalType": "address",
          "name": "",
          "type": "address"
        }
      ],
      "payable": false,
      "stateMutability": "nonpayable",
      "type": "function"
    },
    {
      "constant": false,
      "inputs": [
        {
          "internalType": "uint256",
          "name": "_index",
          "type": "uint256"
        }
      ],
      "name": "totalfee",
      "outputs": [
        {
          "internalType": "uint256",
          "name": "",
          "type": "uint256"
        }
      ],
      "payable": false,
      "stateMutability": "nonpayable",
      "type": "function"
    },
    {
      "constant": false,
      "inputs": [
        {
          "internalType": "uint256",
          "name": "_index",
          "type": "uint256"
        }
      ],
      "name": "rent",
      "outputs": [
        {
          "internalType": "uint256",
          "name": "",
          "type": "uint256"
        }
      ],
      "payable": false,
      "stateMutability": "nonpayable",
      "type": "function"
    },
    {
      "constant": false,
      "inputs": [
        {
          "internalType": "uint256",
          "name": "_index",
          "type": "uint256"
        }
      ],
      "name": "securitydeposit",
      "outputs": [
        {
          "internalType": "uint256",
          "name": "",
          "type": "uint256"
        }
      ],
      "payable": false,
      "stateMutability": "nonpayable",
      "type": "function"
    },
    {
      "constant": false,
      "inputs": [
        {
          "internalType": "uint256",
          "name": "_index",
          "type": "uint256"
        }
      ],
      "name": "landlordAddress",
      "outputs": [
        {
          "internalType": "address",
          "name": "",
          "type": "address"
        }
      ],
      "payable": false,
      "stateMutability": "nonpayable",
      "type": "function"
    },
    {
      "constant": false,
      "inputs": [
        {
          "internalType": "uint256",
          "name": "index",
          "type": "uint256"
        }
      ],
      "name": "reportroom",
      "outputs": [],
      "payable": false,
      "stateMutability": "nonpayable",
      "type": "function"
    }
  ],
  "bytecode": "0x60806040526000600355600060045560006005556000600655600560075534801561002957600080fd5b50336000806101000a81548173ffffffffffffffffffffffffffffffffffffffff021916908373ffffffffffffffffffffffffffffffffffffffff160217905550613e7b806100796000396000f3fe6080604052600436106101815760003560e01c806363e475bd116100d1578063a3eaed811161008a578063d0d205b711610064578063d0d205b7146105b1578063d9e8843f146105f6578063ed530e0d14610612578063ff1b636d1461065757610181565b8063a3eaed8114610534578063b7877f6d1461055d578063c00433d01461058657610181565b806363e475bd146104125780636cf1c7a21461043b57806371011ae5146104645780637456be7d146104a157806375eb9ef6146104de5780639a7efda21461050957610181565b806332e7a8881161013e57806344f136a71161011857806344f136a714610339578063469595871461036257806352753c09146103aa57806359e2cbec146103e757610181565b806332e7a8881461028257806336e0862d146102bf5780633ef9a386146102fc57610181565b806302bb27251461018657806303742de0146101cd5780630ff2a806146101e957806316abb8a1146102145780631aadb6ac146102305780631dc3b3c014610259575b600080fd5b34801561019257600080fd5b506101ad60048036036101a89190810190613339565b610682565b6040516101c49b9a99989796959493929190613b07565b60405180910390f35b6101e760048036036101e29190810190613339565b61084c565b005b3480156101f557600080fd5b506101fe611282565b60405161020b9190613a24565b60405180910390f35b61022e60048036036102299190810190613339565b611288565b005b34801561023c57600080fd5b5061025760048036036102529190810190613339565b611569565b005b34801561026557600080fd5b50610280600480360361027b9190810190613362565b61182d565b005b34801561028e57600080fd5b506102a960048036036102a49190810190613339565b611cba565b6040516102b69190613a24565b60405180910390f35b3480156102cb57600080fd5b506102e660048036036102e1919081019061326a565b611d03565b6040516102f39190613849565b60405180910390f35b34801561030857600080fd5b50610323600480360361031e9190810190613362565b611d3b565b6040516103309190613849565b60405180910390f35b34801561034557600080fd5b50610360600480360361035b919081019061339e565b611d73565b005b34801561036e57600080fd5b5061038960048036036103849190810190613339565b611f0f565b6040516103a19c9b9a99989796959493929190613a3f565b60405180910390f35b3480156103b657600080fd5b506103d160048036036103cc9190810190613339565b6120f9565b6040516103de919061382e565b60405180910390f35b3480156103f357600080fd5b506103fc61213e565b6040516104099190613a24565b60405180910390f35b34801561041e57600080fd5b50610439600480360361043491908101906132a6565b612144565b005b34801561044757600080fd5b50610462600480360361045d9190810190613362565b61234c565b005b34801561047057600080fd5b5061048b60048036036104869190810190613339565b6125d6565b6040516104989190613a24565b60405180910390f35b3480156104ad57600080fd5b506104c860048036036104c39190810190613339565b6125fb565b6040516104d59190613a24565b60405180910390f35b3480156104ea57600080fd5b506104f3612620565b6040516105009190613a24565b60405180910390f35b34801561051557600080fd5b5061051e612626565b60405161052b9190613a24565b60405180910390f35b34801561054057600080fd5b5061055b60048036036105569190810190613339565b61262c565b005b34801561056957600080fd5b50610584600480360361057f9190810190613339565b61274c565b005b34801561059257600080fd5b5061059b612872565b6040516105a89190613a24565b60405180910390f35b3480156105bd57600080fd5b506105d860048036036105d39190810190613339565b612878565b6040516105ed99989796959493929190613bc0565b60405180910390f35b610610600480360361060b9190810190613339565b612a36565b005b34801561061e57600080fd5b5061063960048036036106349190810190613339565b613069565b60405161064e99989796959493929190613c5b565b60405180910390f35b34801561066357600080fd5b5061066c61311e565b604051610679919061382e565b60405180910390f35b6009602052806000526040600020600091509050806000015490806001015490806002018054600181600116156101000203166002900480601f01602080910402602001604051908101604052809291908181526020018280546001816001161561010002031660029004801561073a5780601f1061070f5761010080835404028352916020019161073a565b820191906000526020600020905b81548152906001019060200180831161071d57829003601f168201915b505050505090806003018054600181600116156101000203166002900480601f0160208091040260200160405190810160405280929190818152602001828054600181600116156101000203166002900480156107d85780601f106107ad576101008083540402835291602001916107d8565b820191906000526020600020905b8154815290600101906020018083116107bb57829003601f168201915b5050505050908060040154908060050154908060060154908060070154908060080154908060090160009054906101000a900473ffffffffffffffffffffffffffffffffffffffff169080600a0160009054906101000a900473ffffffffffffffffffffffffffffffffffffffff1690508b565b806008600082815260200190815260200160002060070160019054906101000a900473ffffffffffffffffffffffffffffffffffffffff1673ffffffffffffffffffffffffffffffffffffffff163373ffffffffffffffffffffffffffffffffffffffff1614156108f2576040517f08c379a00000000000000000000000000000000000000000000000000000000081526004016108e9906138e4565b60405180910390fd5b816008600082815260200190815260200160002060050154600860008381526020019081526020016000206004015401341015610964576040517f08c379a000000000000000000000000000000000000000000000000000000000815260040161095b90613924565b60405180910390fd5b82600115156008600083815260200190815260200160002060070160009054906101000a900460ff161515146109cf576040517f08c379a00000000000000000000000000000000000000000000000000000000081526004016109c690613884565b60405180910390fd5b836000151560086000838152602001908152602001600020600a0160009054906101000a900460ff16151514610a3a576040517f08c379a0000000000000000000000000000000000000000000000000000000008152600401610a3190613984565b60405180910390fd5b60006008600087815260200190815260200160002060070160019054906101000a900473ffffffffffffffffffffffffffffffffffffffff16905060006008600088815260200190815260200160002060050154600860008981526020019081526020016000206004015401905060006064600754830281610ab857fe5b049050600081830390506000809054906101000a900473ffffffffffffffffffffffffffffffffffffffff1673ffffffffffffffffffffffffffffffffffffffff166108fc839081150290604051600060405180830381858888f19350505050158015610b29573d6000803e3d6000fd5b508373ffffffffffffffffffffffffffffffffffffffff166108fc829081150290604051600060405180830381858888f19350505050158015610b70573d6000803e3d6000fd5b5060046000815480929190600101919050555033600860008b815260200190815260200160002060080160006101000a81548173ffffffffffffffffffffffffffffffffffffffff021916908373ffffffffffffffffffffffffffffffffffffffff1602179055506000600860008b815260200190815260200160002060070160006101000a81548160ff02191690831515021790555042600860008b815260200190815260200160002060060181905550600454600860008b8152602001908152602001600020600101819055506040518061016001604052808a81526020016004548152602001600860008c81526020019081526020016000206002018054600181600116156101000203166002900480601f016020809104026020016040519081016040528092919081815260200182805460018160011615610100020316600290048015610d035780601f10610cd857610100808354040283529160200191610d03565b820191906000526020600020905b815481529060010190602001808311610ce657829003601f168201915b50505050508152602001600860008c81526020019081526020016000206003018054600181600116156101000203166002900480601f016020809104026020016040519081016040528092919081815260200182805460018160011615610100020316600290048015610db75780601f10610d8c57610100808354040283529160200191610db7565b820191906000526020600020905b815481529060010190602001808311610d9a57829003601f168201915b50505050508152602001600860008c8152602001908152602001600020600401548152602001600860008c815260200190815260200160002060050154815260200160075481526020016301e1338081526020014281526020013373ffffffffffffffffffffffffffffffffffffffff1681526020018573ffffffffffffffffffffffffffffffffffffffff1681525060096000600454815260200190815260200160002060008201518160000155602082015181600101556040820151816002019080519060200190610e8c929190613147565b506060820151816003019080519060200190610ea9929190613147565b506080820151816004015560a0820151816005015560c0820151816006015560e0820151816007015561010082015181600801556101208201518160090160006101000a81548173ffffffffffffffffffffffffffffffffffffffff021916908373ffffffffffffffffffffffffffffffffffffffff16021790555061014082015181600a0160006101000a81548173ffffffffffffffffffffffffffffffffffffffff021916908373ffffffffffffffffffffffffffffffffffffffff16021790555090505060056000815480929190600101919050555060405180610120016040528060055481526020018a81526020016004548152602001600860008c81526020019081526020016000206002018054600181600116156101000203166002900480601f01602080910402602001604051908101604052809291908181526020018280546001816001161561010002031660029004801561104e5780601f106110235761010080835404028352916020019161104e565b820191906000526020600020905b81548152906001019060200180831161103157829003601f168201915b50505050508152602001600860008c81526020019081526020016000206003018054600181600116156101000203166002900480601f0160208091040260200160405190810160405280929190818152602001828054600181600116156101000203166002900480156111025780601f106110d757610100808354040283529160200191611102565b820191906000526020600020905b8154815290600101906020018083116110e557829003601f168201915b50505050508152602001600860008c81526020019081526020016000206004015481526020014281526020013373ffffffffffffffffffffffffffffffffffffffff1681526020018573ffffffffffffffffffffffffffffffffffffffff16815250600a6000600554815260200190815260200160002060008201518160000155602082015181600101556040820151816002015560608201518160030190805190602001906111b3929190613147565b5060808201518160040190805190602001906111d0929190613147565b5060a0820151816005015560c0820151816006015560e08201518160070160006101000a81548173ffffffffffffffffffffffffffffffffffffffff021916908373ffffffffffffffffffffffffffffffffffffffff1602179055506101008201518160080160006101000a81548173ffffffffffffffffffffffffffffffffffffffff021916908373ffffffffffffffffffffffffffffffffffffffff160217905550905050505050505050505050565b60045481565b806008600082815260200190815260200160002060070160019054906101000a900473ffffffffffffffffffffffffffffffffffffffff1673ffffffffffffffffffffffffffffffffffffffff163373ffffffffffffffffffffffffffffffffffffffff161461132d576040517f08c379a0000000000000000000000000000000000000000000000000000000008152600401611324906138a4565b60405180910390fd5b816000600860008381526020019081526020016000206001015490506000600960008381526020019081526020016000206007015460096000848152602001908152602001600020600801540190508042116113be576040517f08c379a00000000000000000000000000000000000000000000000000000000081526004016113b590613a04565b60405180910390fd5b846000151560086000838152602001908152602001600020600a0160009054906101000a900460ff16151514611429576040517f08c379a000000000000000000000000000000000000000000000000000000000815260040161142090613984565b60405180910390fd5b600015156008600088815260200190815260200160002060070160009054906101000a900460ff16151514611493576040517f08c379a000000000000000000000000000000000000000000000000000000000815260040161148a90613884565b60405180910390fd5b60016008600088815260200190815260200160002060070160006101000a81548160ff02191690831515021790555060006008600088815260200190815260200160002060080160009054906101000a900473ffffffffffffffffffffffffffffffffffffffff1690506000600860008981526020019081526020016000206005015490508173ffffffffffffffffffffffffffffffffffffffff166108fc829081150290604051600060405180830381858888f1935050505015801561155e573d6000803e3d6000fd5b505050505050505050565b806008600082815260200190815260200160002060070160019054906101000a900473ffffffffffffffffffffffffffffffffffffffff1673ffffffffffffffffffffffffffffffffffffffff163373ffffffffffffffffffffffffffffffffffffffff16141561160f576040517f08c379a0000000000000000000000000000000000000000000000000000000008152600401611606906138e4565b60405180910390fd5b816000151560086000838152602001908152602001600020600a0160009054906101000a900460ff1615151461167a576040517f08c379a000000000000000000000000000000000000000000000000000000000815260040161167190613984565b60405180910390fd5b60006008600085815260200190815260200160002060090154905060001515600c60003373ffffffffffffffffffffffffffffffffffffffff1673ffffffffffffffffffffffffffffffffffffffff168152602001908152602001600020600086815260200190815260200160002060000160009054906101000a900460ff16151514156117965780806001019150508060086000868152602001908152602001600020600901819055506001600c60003373ffffffffffffffffffffffffffffffffffffffff1673ffffffffffffffffffffffffffffffffffffffff168152602001908152602001600020600086815260200190815260200160002060000160006101000a81548160ff021916908315150217905550611827565b8080600190039150508060086000868152602001908152602001600020600901819055506000600c60003373ffffffffffffffffffffffffffffffffffffffff1673ffffffffffffffffffffffffffffffffffffffff168152602001908152602001600020600086815260200190815260200160002060000160006101000a81548160ff0219169083151502179055505b50505050565b816008600082815260200190815260200160002060070160019054906101000a900473ffffffffffffffffffffffffffffffffffffffff1673ffffffffffffffffffffffffffffffffffffffff163373ffffffffffffffffffffffffffffffffffffffff16146118d2576040517f08c379a00000000000000000000000000000000000000000000000000000000081526004016118c9906138a4565b60405180910390fd5b82600060086000838152602001908152602001600020600101549050600060096000838152602001908152602001600020600701546009600084815260200190815260200160002060080154019050804210611963576040517f08c379a000000000000000000000000000000000000000000000000000000000815260040161195a90613864565b60405180910390fd5b858560001515600d6000848152602001908152602001600020600083815260200190815260200160002060000160009054906101000a900460ff161515146119e0576040517f08c379a00000000000000000000000000000000000000000000000000000000081526004016119d7906139a4565b60405180910390fd5b876000151560086000838152602001908152602001600020600a0160009054906101000a900460ff16151514611a4b576040517f08c379a0000000000000000000000000000000000000000000000000000000008152600401611a4290613984565b60405180910390fd5b6001600d60008b815260200190815260200160002060008a815260200190815260200160002060000160006101000a81548160ff02191690831515021790555060066000815480929190600101919050555060405180610120016040528060065481526020018a8152602001898152602001428152602001600860008c815260200190815260200160002060070160019054906101000a900473ffffffffffffffffffffffffffffffffffffffff1673ffffffffffffffffffffffffffffffffffffffff168152602001600860008c815260200190815260200160002060080160009054906101000a900473ffffffffffffffffffffffffffffffffffffffff1673ffffffffffffffffffffffffffffffffffffffff16815260200160001515815260200160001515815260200160001515815250600b600060065481526020019081526020016000206000820151816000015560208201518160010155604082015181600201556060820151816003015560808201518160040160006101000a81548173ffffffffffffffffffffffffffffffffffffffff021916908373ffffffffffffffffffffffffffffffffffffffff16021790555060a08201518160050160006101000a81548173ffffffffffffffffffffffffffffffffffffffff021916908373ffffffffffffffffffffffffffffffffffffffff16021790555060c08201518160050160146101000a81548160ff02191690831515021790555060e08201518160050160156101000a81548160ff0219169083151502179055506101008201518160050160166101000a81548160ff021916908315150217905550905050505050505050505050565b6000806008600084815260200190815260200160002060040154905060006008600085815260200190815260200160002060050154905060008183019050809350505050919050565b600c602052816000526040600020602052806000526040600020600091509150508060000160009054906101000a900460ff16905081565b600d602052816000526040600020602052806000526040600020600091509150508060000160009054906101000a900460ff16905081565b6000809054906101000a900473ffffffffffffffffffffffffffffffffffffffff1673ffffffffffffffffffffffffffffffffffffffff163373ffffffffffffffffffffffffffffffffffffffff1614611e02576040517f08c379a0000000000000000000000000000000000000000000000000000000008152600401611df990613964565b60405180910390fd5b60001515600b600083815260200190815260200160002060050160169054906101000a900460ff16151514611e6c576040517f08c379a0000000000000000000000000000000000000000000000000000000008152600401611e63906139c4565b60405180910390fd5b6000600d6000858152602001908152602001600020600084815260200190815260200160002060000160006101000a81548160ff0219169083151502179055506001600b600083815260200190815260200160002060050160156101000a81548160ff0219169083151502179055506001600b600083815260200190815260200160002060050160166101000a81548160ff021916908315150217905550505050565b6008602052806000526040600020600091509050806000015490806001015490806002018054600181600116156101000203166002900480601f016020809104026020016040519081016040528092919081815260200182805460018160011615610100020316600290048015611fc75780601f10611f9c57610100808354040283529160200191611fc7565b820191906000526020600020905b815481529060010190602001808311611faa57829003601f168201915b505050505090806003018054600181600116156101000203166002900480601f0160208091040260200160405190810160405280929190818152602001828054600181600116156101000203166002900480156120655780601f1061203a57610100808354040283529160200191612065565b820191906000526020600020905b81548152906001019060200180831161204857829003601f168201915b5050505050908060040154908060050154908060060154908060070160009054906101000a900460ff16908060070160019054906101000a900473ffffffffffffffffffffffffffffffffffffffff16908060080160009054906101000a900473ffffffffffffffffffffffffffffffffffffffff169080600901549080600a0160009054906101000a900460ff1690508c565b6000806008600084815260200190815260200160002060070160019054906101000a900473ffffffffffffffffffffffffffffffffffffffff16905080915050919050565b60035481565b6003600081548092919060010191905055506000600190506040518061018001604052806003548152602001600081526020018681526020018581526020018481526020018381526020016000815260200182151581526020013373ffffffffffffffffffffffffffffffffffffffff168152602001600073ffffffffffffffffffffffffffffffffffffffff16815260200160008152602001600015158152506008600060035481526020019081526020016000206000820151816000015560208201518160010155604082015181600201908051906020019061222a929190613147565b506060820151816003019080519060200190612247929190613147565b506080820151816004015560a0820151816005015560c0820151816006015560e08201518160070160006101000a81548160ff0219169083151502179055506101008201518160070160016101000a81548173ffffffffffffffffffffffffffffffffffffffff021916908373ffffffffffffffffffffffffffffffffffffffff1602179055506101208201518160080160006101000a81548173ffffffffffffffffffffffffffffffffffffffff021916908373ffffffffffffffffffffffffffffffffffffffff160217905550610140820151816009015561016082015181600a0160006101000a81548160ff0219169083151502179055509050505050505050565b6000809054906101000a900473ffffffffffffffffffffffffffffffffffffffff1673ffffffffffffffffffffffffffffffffffffffff163373ffffffffffffffffffffffffffffffffffffffff16146123db576040517f08c379a00000000000000000000000000000000000000000000000000000000081526004016123d290613964565b60405180910390fd5b8160006008600083815260200190815260200160002060010154905060006009600083815260200190815260200160002060070154600960008481526020019081526020016000206008015401905080421061246c576040517f08c379a000000000000000000000000000000000000000000000000000000000815260040161246390613864565b60405180910390fd5b846000151560086000838152602001908152602001600020600a0160009054906101000a900460ff161515146124d7576040517f08c379a00000000000000000000000000000000000000000000000000000000081526004016124ce90613984565b60405180910390fd5b60001515600b600087815260200190815260200160002060050160169054906101000a900460ff16151514612541576040517f08c379a0000000000000000000000000000000000000000000000000000000008152600401612538906139c4565b60405180910390fd5b60016008600088815260200190815260200160002060070160006101000a81548160ff0219169083151502179055506001600b600087815260200190815260200160002060050160146101000a81548160ff0219169083151502179055506001600b600087815260200190815260200160002060050160166101000a81548160ff021916908315150217905550505050505050565b6000806008600084815260200190815260200160002060050154905080915050919050565b6000806008600084815260200190815260200160002060040154905080915050919050565b60055481565b60075481565b6000809054906101000a900473ffffffffffffffffffffffffffffffffffffffff1673ffffffffffffffffffffffffffffffffffffffff163373ffffffffffffffffffffffffffffffffffffffff16146126bb576040517f08c379a00000000000000000000000000000000000000000000000000000000081526004016126b290613964565b60405180910390fd5b60008110156126ff576040517f08c379a00000000000000000000000000000000000000000000000000000000081526004016126f690613944565b60405180910390fd5b60648110612742576040517f08c379a0000000000000000000000000000000000000000000000000000000008152600401612739906138c4565b60405180910390fd5b8060078190555050565b6000809054906101000a900473ffffffffffffffffffffffffffffffffffffffff1673ffffffffffffffffffffffffffffffffffffffff163373ffffffffffffffffffffffffffffffffffffffff16146127db576040517f08c379a00000000000000000000000000000000000000000000000000000000081526004016127d290613964565b60405180910390fd5b6000151560086000838152602001908152602001600020600a0160009054906101000a900460ff161515141561283f57600160086000838152602001908152602001600020600a0160006101000a81548160ff02191690831515021790555061286f565b600060086000838152602001908152602001600020600a0160006101000a81548160ff0219169083151502179055505b50565b60065481565b600a602052806000526040600020600091509050806000015490806001015490806002015490806003018054600181600116156101000203166002900480601f0160208091040260200160405190810160405280929190818152602001828054600181600116156101000203166002900480156129365780601f1061290b57610100808354040283529160200191612936565b820191906000526020600020905b81548152906001019060200180831161291957829003601f168201915b505050505090806004018054600181600116156101000203166002900480601f0160208091040260200160405190810160405280929190818152602001828054600181600116156101000203166002900480156129d45780601f106129a9576101008083540402835291602001916129d4565b820191906000526020600020905b8154815290600101906020018083116129b757829003601f168201915b5050505050908060050154908060060154908060070160009054906101000a900473ffffffffffffffffffffffffffffffffffffffff16908060080160009054906101000a900473ffffffffffffffffffffffffffffffffffffffff16905089565b806008600082815260200190815260200160002060080160009054906101000a900473ffffffffffffffffffffffffffffffffffffffff1673ffffffffffffffffffffffffffffffffffffffff163373ffffffffffffffffffffffffffffffffffffffff1614612adb576040517f08c379a0000000000000000000000000000000000000000000000000000000008152600401612ad290613904565b60405180910390fd5b81600062278d006008600084815260200190815260200160002060060154019050804214612b3e576040517f08c379a0000000000000000000000000000000000000000000000000000000008152600401612b35906139e4565b60405180910390fd5b836008600082815260200190815260200160002060040154341015612b98576040517f08c379a0000000000000000000000000000000000000000000000000000000008152600401612b8f90613924565b60405180910390fd5b846000151560086000838152602001908152602001600020600a0160009054906101000a900460ff16151514612c03576040517f08c379a0000000000000000000000000000000000000000000000000000000008152600401612bfa90613984565b60405180910390fd5b60006008600088815260200190815260200160002060070160019054906101000a900473ffffffffffffffffffffffffffffffffffffffff1690506000600860008981526020019081526020016000206004015490508173ffffffffffffffffffffffffffffffffffffffff166108fc829081150290604051600060405180830381858888f19350505050158015612c9f573d6000803e3d6000fd5b5033600860008a815260200190815260200160002060080160006101000a81548173ffffffffffffffffffffffffffffffffffffffff021916908373ffffffffffffffffffffffffffffffffffffffff1602179055506000600860008a815260200190815260200160002060070160006101000a81548160ff0219169083151502179055506005600081548092919060010191905055506040518061012001604052806005548152602001898152602001600860008b8152602001908152602001600020600101548152602001600860008b81526020019081526020016000206002018054600181600116156101000203166002900480601f016020809104026020016040519081016040528092919081815260200182805460018160011615610100020316600290048015612e165780601f10612deb57610100808354040283529160200191612e16565b820191906000526020600020905b815481529060010190602001808311612df957829003601f168201915b50505050508152602001600860008b81526020019081526020016000206003018054600181600116156101000203166002900480601f016020809104026020016040519081016040528092919081815260200182805460018160011615610100020316600290048015612eca5780601f10612e9f57610100808354040283529160200191612eca565b820191906000526020600020905b815481529060010190602001808311612ead57829003601f168201915b505050505081526020018281526020014281526020013373ffffffffffffffffffffffffffffffffffffffff168152602001600860008b815260200190815260200160002060070160019054906101000a900473ffffffffffffffffffffffffffffffffffffffff1673ffffffffffffffffffffffffffffffffffffffff16815250600a600060055481526020019081526020016000206000820151816000015560208201518160010155604082015181600201556060820151816003019080519060200190612f9b929190613147565b506080820151816004019080519060200190612fb8929190613147565b5060a0820151816005015560c0820151816006015560e08201518160070160006101000a81548173ffffffffffffffffffffffffffffffffffffffff021916908373ffffffffffffffffffffffffffffffffffffffff1602179055506101008201518160080160006101000a81548173ffffffffffffffffffffffffffffffffffffffff021916908373ffffffffffffffffffffffffffffffffffffffff1602179055509050505050505050505050565b600b6020528060005260406000206000915090508060000154908060010154908060020154908060030154908060040160009054906101000a900473ffffffffffffffffffffffffffffffffffffffff16908060050160009054906101000a900473ffffffffffffffffffffffffffffffffffffffff16908060050160149054906101000a900460ff16908060050160159054906101000a900460ff16908060050160169054906101000a900460ff16905089565b60008060009054906101000a900473ffffffffffffffffffffffffffffffffffffffff16905090565b828054600181600116156101000203166002900490600052602060002090601f016020900481019282601f1061318857805160ff19168380011785556131b6565b828001600101855582156131b6579182015b828111156131b557825182559160200191906001019061319a565b5b5090506131c391906131c7565b5090565b6131e991905b808211156131e55760008160009055506001016131cd565b5090565b90565b6000813590506131fb81613e0a565b92915050565b600082601f83011261321257600080fd5b813561322561322082613d15565b613ce8565b9150808252602083016020830185838301111561324157600080fd5b61324c838284613db7565b50505092915050565b60008135905061326481613e21565b92915050565b6000806040838503121561327d57600080fd5b600061328b858286016131ec565b925050602061329c85828601613255565b9150509250929050565b600080600080608085870312156132bc57600080fd5b600085013567ffffffffffffffff8111156132d657600080fd5b6132e287828801613201565b945050602085013567ffffffffffffffff8111156132ff57600080fd5b61330b87828801613201565b935050604061331c87828801613255565b925050606061332d87828801613255565b91505092959194509250565b60006020828403121561334b57600080fd5b600061335984828501613255565b91505092915050565b6000806040838503121561337557600080fd5b600061338385828601613255565b925050602061339485828601613255565b9150509250929050565b6000806000606084860312156133b357600080fd5b60006133c186828701613255565b93505060206133d286828701613255565b92505060406133e386828701613255565b9150509250925092565b6133f681613d6f565b82525050565b61340581613d5d565b82525050565b61341481613d81565b82525050565b600061342582613d41565b61342f8185613d4c565b935061343f818560208601613dc6565b61344881613df9565b840191505092915050565b6000613460601783613d4c565b91507f41677265656d656e7420616c726561647920456e6465640000000000000000006000830152602082019050919050565b60006134a0601b83613d4c565b91507f526f6f6d2069732063757272656e746c79204f636375706965642e00000000006000830152602082019050919050565b60006134e0601d83613d4c565b91507f4f6e6c79206c616e646c6f72642063616e2061636365737320746869730000006000830152602082019050919050565b6000613520602183613d4c565b91507f63616e206e6f7420626520657175616c206f72206d6f7265207468616e20313060008301527f30000000000000000000000000000000000000000000000000000000000000006020830152604082019050919050565b6000613586601b83613d4c565b91507f4f6e6c792054656e616e742063616e20616363657373207468697300000000006000830152602082019050919050565b60006135c6602f83613d4c565b91507f4e6f2070726576696f75732061677265656d656e7420666f756e64207769746860008301527f20796f752026206c616e646c6f726400000000000000000000000000000000006020830152604082019050919050565b600061362c601f83613d4c565b91507f4e6f7420656e6f75676820457468657220696e20796f75722077616c6c6574006000830152602082019050919050565b600061366c601383613d4c565b91507f63616e206e6f74206265206e65676174697665000000000000000000000000006000830152602082019050919050565b60006136ac601a83613d4c565b91507f4f6e6c792041646d696e2063616e2061636365737320746869730000000000006000830152602082019050919050565b60006136ec601583613d4c565b91507f526f6f6d20416c72656164792044697361626c656400000000000000000000006000830152602082019050919050565b600061372c601183613d4c565b91507f416c7265616479205265717565737465640000000000000000000000000000006000830152602082019050919050565b600061376c601983613d4c565b91507f5265717565737420416c726561647920436f6d706c65746564000000000000006000830152602082019050919050565b60006137ac601583613d4c565b91507f54696d65206c65667420746f207061792052656e7400000000000000000000006000830152602082019050919050565b60006137ec601e83613d4c565b91507f54696d6573206c65667420666f7220636f6e747261637420746f20656e6400006000830152602082019050919050565b61382881613dad565b82525050565b600060208201905061384360008301846133fc565b92915050565b600060208201905061385e600083018461340b565b92915050565b6000602082019050818103600083015261387d81613453565b9050919050565b6000602082019050818103600083015261389d81613493565b9050919050565b600060208201905081810360008301526138bd816134d3565b9050919050565b600060208201905081810360008301526138dd81613513565b9050919050565b600060208201905081810360008301526138fd81613579565b9050919050565b6000602082019050818103600083015261391d816135b9565b9050919050565b6000602082019050818103600083015261393d8161361f565b9050919050565b6000602082019050818103600083015261395d8161365f565b9050919050565b6000602082019050818103600083015261397d8161369f565b9050919050565b6000602082019050818103600083015261399d816136df565b9050919050565b600060208201905081810360008301526139bd8161371f565b9050919050565b600060208201905081810360008301526139dd8161375f565b9050919050565b600060208201905081810360008301526139fd8161379f565b9050919050565b60006020820190508181036000830152613a1d816137df565b9050919050565b6000602082019050613a39600083018461381f565b92915050565b600061018082019050613a55600083018f61381f565b613a62602083018e61381f565b8181036040830152613a74818d61341a565b90508181036060830152613a88818c61341a565b9050613a97608083018b61381f565b613aa460a083018a61381f565b613ab160c083018961381f565b613abe60e083018861340b565b613acc6101008301876133ed565b613ada6101208301866133ed565b613ae861014083018561381f565b613af661016083018461340b565b9d9c50505050505050505050505050565b600061016082019050613b1d600083018e61381f565b613b2a602083018d61381f565b8181036040830152613b3c818c61341a565b90508181036060830152613b50818b61341a565b9050613b5f608083018a61381f565b613b6c60a083018961381f565b613b7960c083018861381f565b613b8660e083018761381f565b613b9461010083018661381f565b613ba26101208301856133ed565b613bb06101408301846133ed565b9c9b505050505050505050505050565b600061012082019050613bd6600083018c61381f565b613be3602083018b61381f565b613bf0604083018a61381f565b8181036060830152613c02818961341a565b90508181036080830152613c16818861341a565b9050613c2560a083018761381f565b613c3260c083018661381f565b613c3f60e08301856133ed565b613c4d6101008301846133ed565b9a9950505050505050505050565b600061012082019050613c71600083018c61381f565b613c7e602083018b61381f565b613c8b604083018a61381f565b613c98606083018961381f565b613ca560808301886133fc565b613cb260a08301876133fc565b613cbf60c083018661340b565b613ccc60e083018561340b565b613cda61010083018461340b565b9a9950505050505050505050565b6000604051905081810181811067ffffffffffffffff82111715613d0b57600080fd5b8060405250919050565b600067ffffffffffffffff821115613d2c57600080fd5b601f19601f8301169050602081019050919050565b600081519050919050565b600082825260208201905092915050565b6000613d6882613d8d565b9050919050565b6000613d7a82613d8d565b9050919050565b60008115159050919050565b600073ffffffffffffffffffffffffffffffffffffffff82169050919050565b6000819050919050565b82818337600083830152505050565b60005b83811015613de4578082015181840152602081019050613dc9565b83811115613df3576000848401525b50505050565b6000601f19601f8301169050919050565b613e1381613d5d565b8114613e1e57600080fd5b50565b613e2a81613dad565b8114613e3557600080fd5b5056fea365627a7a723158201622ce414fcf8e67b70aa9a2ae117ffbe4f1e7f9f016d188dea982504378e63e6c6578706572696d656e74616cf564736f6c63430005100040",
  "source": "pragma solidity ^0.5.16;\npragma experimental ABIEncoderV2;\n\ncontract RentalAgreement{\n    address payable admin;\n    address payable tenant;\n    address payable landlord;\n    uint public no_of_rooms = 0;\n    uint public no_of_agreement = 0;\n    uint public no_of_rent = 0;\n    uint public no_of_terminationrequest = 0;\n    uint public commisionpercentage = 5;\n\n    constructor() public{\n        admin = msg.sender;\n    }\n    \n    struct Room{\n        uint roomid;\n        uint agreementid;\n        string housename;\n        string houseaddress;\n        uint rent_per_month;\n        uint securityDeposit;\n        uint timestamp;\n        bool vacant;\n        address payable landlord;\n        address payable currentTenant;\n        uint reports;\n        bool disableroom;\n    }\n    \n    mapping(uint => Room) public Room_by_No;\n    \n    struct RoomAgreement{\n        uint roomid;\n        uint agreementid;\n        string Roomname;\n        string RoomAddresss;\n        uint rent_per_month;\n        uint securityDeposit;\n        uint commisionpercentage;\n        uint lockInPeriod;\n        uint timestamp;\n        address payable tenantAddress;\n        address payable landlordAddress;\n    }\n    \n   mapping(uint => RoomAgreement) public RoomAgreement_by_No;\n    \n    struct Rent{\n        uint rentno;\n        uint roomid;\n        uint agreementid;\n        string Roomname;\n        string RoomAddresss;\n        uint rent_per_month;\n        uint timestamp;\n        address payable tenantAddress;\n        address payable landlordAddress;\n    }\n    \n   mapping(uint => Rent) public Rent_by_No;\n    \n    struct RequestAgreementTermination{\n        uint terminationno;\n        uint roomid;\n        uint agreementid;\n        uint timestamp;\n        address landlord;\n        address tenant;\n        bool terminated;\n        bool rejected;\n        bool completed;\n    }\n\n    mapping(uint => RequestAgreementTermination) public RequestAgreementTermination_By_No;\n    \n    struct Reporter{\n        bool reported;\n    }\n  \n    mapping(address => mapping(uint =>  Reporter)) public reporters;\n  \n    struct Terminationreq{\n        bool requested;\n    }\n    \n    mapping(uint => mapping(uint =>  Terminationreq)) public terminationreq;\n\n\n    modifier onlyAdmin() {\n        require(msg.sender == admin, \"Only Admin can access this\");\n        _;\n    }\n    \n    modifier onlyLandlord(uint _index) {\n        require(msg.sender == Room_by_No[_index].landlord, \"Only landlord can access this\");\n        _;\n    }\n    \n    modifier notLandLord(uint _index) {\n        require(msg.sender != Room_by_No[_index].landlord, \"Only Tenant can access this\");\n        _;\n    }\n    \n    modifier OnlyWhileVacant(uint _index){\n        \n        require(Room_by_No[_index].vacant == true, \"Room is currently Occupied.\");\n        _;\n    }\n    \n    modifier enoughRent(uint _index) {\n        require(msg.value >= uint(Room_by_No[_index].rent_per_month), \"Not enough Ether in your wallet\");\n        _;\n    }\n    \n    modifier enoughAgreementfee(uint _index) {\n        require(msg.value >= uint(uint(Room_by_No[_index].rent_per_month) + uint(Room_by_No[_index].securityDeposit)), \"Not enough Ether in your wallet\");\n        _;\n    }\n    \n    modifier sameTenant(uint _index) {\n        require(msg.sender == Room_by_No[_index].currentTenant, \"No previous agreement found with you & landlord\");\n        _;\n    }\n    \n    modifier AgreementTimesLeft(uint _index) {\n        uint _AgreementNo = Room_by_No[_index].agreementid;\n        uint time = RoomAgreement_by_No[_AgreementNo].timestamp + RoomAgreement_by_No[_AgreementNo].lockInPeriod;\n        require(now < time, \"Agreement already Ended\");\n        _;\n    }\n    \n    modifier AgreementTimesUp(uint _index) {\n        uint _AgreementNo = Room_by_No[_index].agreementid;\n        uint time = RoomAgreement_by_No[_AgreementNo].timestamp + RoomAgreement_by_No[_AgreementNo].lockInPeriod;\n        require(now > time, \"Times left for contract to end\");\n        _;\n    }\n    \n    modifier RentTimesUp(uint _index) {\n        uint time = Room_by_No[_index].timestamp + 30 days;\n        require(now == time, \"Time left to pay Rent\");\n        _;\n    }\n\n    modifier notrequested(uint _index, uint _agreementid){\n        require(terminationreq[_index][_agreementid].requested == false, \"Already Requested\");\n        _;\n    }\n    \n    modifier enabled(uint _index){\n        require(Room_by_No[_index].disableroom == false, \"Room Already Disabled\");\n        _;\n    }\n    \n    function addRoom(string memory _housename, string memory _houseaddress, uint _rentcost, uint  _securitydeposit) public {\n        no_of_rooms ++;\n        bool _vacancy = true;\n        Room_by_No[no_of_rooms] = Room(no_of_rooms,0,_housename,_houseaddress, _rentcost,_securitydeposit,0,_vacancy, msg.sender, address(0),0,false); \n        \n    }\n    \n    function signAgreement(uint _index) public payable notLandLord(_index) enoughAgreementfee(_index) OnlyWhileVacant(_index) enabled( _index){\n        address payable _landlord = Room_by_No[_index].landlord;\n        uint totalfee = Room_by_No[_index].rent_per_month + Room_by_No[_index].securityDeposit;\n        \n        uint commision = (totalfee*commisionpercentage)/100;\n        uint rest = totalfee - commision;\n        admin.transfer(commision);\n        _landlord.transfer(rest);\n        \n        no_of_agreement++;\n\n        Room_by_No[_index].currentTenant = msg.sender;\n        Room_by_No[_index].vacant = false;\n        Room_by_No[_index].timestamp = block.timestamp;\n        Room_by_No[_index].agreementid = no_of_agreement;\n        RoomAgreement_by_No[no_of_agreement]=RoomAgreement(_index,no_of_agreement,Room_by_No[_index].housename,Room_by_No[_index].houseaddress,Room_by_No[_index].rent_per_month,Room_by_No[_index].securityDeposit,commisionpercentage,365 days,block.timestamp,msg.sender,_landlord);\n        no_of_rent++;\n        Rent_by_No[no_of_rent] = Rent(no_of_rent,_index,no_of_agreement,Room_by_No[_index].housename,Room_by_No[_index].houseaddress,Room_by_No[_index].rent_per_month,now,msg.sender,_landlord);\n        \n    }\n    \n    function payRent(uint _index) public payable sameTenant(_index) RentTimesUp(_index) enoughRent(_index) enabled( _index){\n        address payable _landlord = Room_by_No[_index].landlord;\n        uint _rent = Room_by_No[_index].rent_per_month;\n        \n        _landlord.transfer(_rent);\n        \n        Room_by_No[_index].currentTenant = msg.sender;\n        Room_by_No[_index].vacant = false;\n        no_of_rent++;\n        Rent_by_No[no_of_rent] = Rent(no_of_rent,_index,Room_by_No[_index].agreementid,Room_by_No[_index].housename,Room_by_No[_index].houseaddress,_rent,now,msg.sender,Room_by_No[_index].landlord);\n    }\n\n    function agreementCompleted(uint _index) public payable onlyLandlord(_index) AgreementTimesUp(_index) enabled( _index){\n        require(Room_by_No[_index].vacant == false, \"Room is currently Occupied.\");\n        Room_by_No[_index].vacant = true;\n        address payable _Tenant = Room_by_No[_index].currentTenant;\n        uint _securitydeposit = Room_by_No[_index].securityDeposit;\n        _Tenant.transfer(_securitydeposit);\n    }\n    \n    function agreementTerminated(uint _index, uint _terminateno) public onlyAdmin() AgreementTimesLeft(_index) enabled( _index){\n        require(RequestAgreementTermination_By_No[_terminateno].completed == false, \"Request Already Completed\");\n        Room_by_No[_index].vacant = true;\n        RequestAgreementTermination_By_No[_terminateno].terminated = true;\n        RequestAgreementTermination_By_No[_terminateno].completed = true;\n\n    }\n\n    function reject(uint _index, uint _agreementno, uint _terminateno) public onlyAdmin() {\n        require(RequestAgreementTermination_By_No[_terminateno].completed == false, \"Request Already Completed\");\n        terminationreq[_index][_agreementno].requested = false;\n        RequestAgreementTermination_By_No[_terminateno].rejected = true;\n        RequestAgreementTermination_By_No[_terminateno].completed = true;\n    }\n    \n    function requestTermination(uint _index,uint _agreementid) public onlyLandlord(_index) AgreementTimesLeft(_index) notrequested(_index,_agreementid) enabled( _index){\n        terminationreq[_index][_agreementid].requested = true;\n        no_of_terminationrequest++;\n        RequestAgreementTermination_By_No[no_of_terminationrequest] = RequestAgreementTermination(no_of_terminationrequest,_index,_agreementid,now,Room_by_No[_index].landlord,Room_by_No[_index].currentTenant,false,false,false);\n        \n    }\n     \n    function changeCommision(uint _commision) public onlyAdmin() {\n        require(_commision >= 0, \"can not be negative\");\n        require(_commision < 100, \"can not be equal or more than 100\");\n        commisionpercentage = _commision;\n    }\n    \n    function diableRoom(uint _index) public onlyAdmin() {\n        if(Room_by_No[_index].disableroom == false){\n            Room_by_No[_index].disableroom = true;\n        }else{\n            Room_by_No[_index].disableroom = false;\n        }\n    }\n    \n    function Admin() public returns (address){\n        return(admin);\n    }\n    \n    function totalfee(uint _index) public returns (uint){\n        uint rent = Room_by_No[_index].rent_per_month;\n        uint securityDeposit = Room_by_No[_index].securityDeposit;\n        uint total =  rent + securityDeposit;\n        return(total);\n    }\n    \n    function rent(uint _index) public returns (uint){\n        uint rent = Room_by_No[_index].rent_per_month;\n        return(rent);\n    }\n\n    function securitydeposit(uint _index) public returns (uint){\n        uint rent = Room_by_No[_index].securityDeposit;\n        return(rent);\n    }\n\n    function landlordAddress(uint _index) public returns (address){\n        address landlordAddress = Room_by_No[_index].landlord;\n        return(landlordAddress);\n    }\n\n    function reportroom(uint index) public notLandLord(index) enabled( index){\n        uint before = Room_by_No[index].reports;\n        if(reporters[msg.sender][index].reported==false){\n            before++;\n            Room_by_No[index].reports = before;\n            reporters[msg.sender][index].reported=true;\n        }\n        else{\n            before--;\n            Room_by_No[index].reports = before;\n            reporters[msg.sender][index].reported=false;\n        }\n    }\n\n}\n    ",
  "sourcePath": "/home/danger-ahead/Documents/open-source/Hacknpitch/src/contracts/RentalAgreement.sol",
  "compiler": {
    "name": "solc",
    "version": "0.5.16+commit.9c3226ce.Emscripten.clang"
  },
  "schemaVersion": "3.4.3",
  "updatedAt": "2021-09-23T10:54:09.791Z",
  "networkType": "ethereum",
  "devdoc": {
    "methods": {}
  },
  "userdoc": {
    "methods": {}
  }
}